:100000000C945D010C947C010C947C010C947C019B
:100010000C947C010C947C010C947C010C947C016C
:100020000C947C010C947C010C947A1C0C94521D51
:100030000C944F170C947C010C947C010C947C0163
:100040000C947C010C947C010C947C010C947C013C
:100050000C947C010C94D6170C947C010C947C01BC
:100060000C947C010C947C010C947C010C947C011C
:100070000C947C010C947C010C947C010C947C010C
:100080000C947C010C947C010C947C010C947C01FC
:100090000C947C010C947C0135002B0029002F006E
:1000A0000000000000001E00140004001D002E00CF
:1000B000000000001F001A0016001B003602650039
:1000C000000020000800070006002D00E0002A00C4
:1000D000210015000900190000000000E1002200C5
:1000E00017000A0005003702E200B20023001C00DE
:1000F0000B00110050002C002800240018000D00F7
:1001000010000000E500000025000C000E00360085
:100110005100E700E400260012000F0037005200F3
:100120000000E20027001300330038004F000000F9
:1001300000002E00310034003000000000000000FC
:1001400029003C003F0042004500480000003A0002
:100150003D00400043004600005C00003B003E00C4
:100160004100440047000000000038034B006900D4
:100170006E00650073006900730020004100640098
:10018000760061006E0074006100670065002F005A
:1001900043006F006E0074006F0075007200650010
:1001A00064000000080359006F007500000004039C
:1001B000090409023B00020100A032090400000109
:1001C00003010100092111010001224000070581FE
:1001D00003080001090401000103000000092111C6
:1001E000010001227B0007058203200001120100AB
:1001F0000200000008EDFE6060020001020001053F
:10020000010902A10185020901A1000509190129BD
:1002100008150025019508750181020501093009BD
:10022000311581257F9502750881060938158125CC
:100230007F950175088106050C0A38021581257F16
:10024000950175088106C0C005010980A1018503DB
:1002500019012AB700150126B70095017510810014
:10026000C0050C0901A101850419012AA00215018C
:1002700026A002950175108100C005010906A101A3
:10028000050719E029E71500250195087501810288
:100290009501750881010507190029FF150026FF42
:1002A0000095067508810005081901290595057551
:1002B000019102950175039101C011241FBECFEF7A
:1002C000D0E2DEBFCDBF11E0A0E0B1E0EEEEF1E4A0
:1002D00000E00BBF02C007900D92A639B107D9F715
:1002E00022E0A6E9B1E001C01D92AD3AB207E1F704
:1002F0000E94A1110C94DF200C94000081E008956D
:1003000081E008950E948001089508950E9485016A
:100310000895A5E0B0E0EFE8F1E00C94291F4983CF
:100320005A833091990189819A81311119C06623CC
:1003300099F0222389F00E942608182F682F8981BE
:100340009A810E94020869817A81812F0E949C0E05
:100350002596E3E00C94451F0E941408182FF3CF54
:100360000E94260869817A81F1CFFC01262F408105
:1003700051816281738184810E948901089581E0A5
:100380000895CF93DF93EC0160E00E94B501BE01B8
:100390000E948601DF91CF9108950E94DB0F08959E
:1003A0000E94DF0F089508950E9451060E94D30114
:1003B0002FEF84E39CE0215080409040E1F700C0A3
:1003C000000008950E94D4010E94FA1708950E9427
:1003D000D4010E942C1808950F931F93CF93DF939D
:1003E0008C0161E00E94B501EC01B8010E9482011C
:1003F000811106C080E0DF91CF911F910F91089588
:10040000B801CE010E94FD158823A1F3B801CE01E9
:100410000E943214882371F3B801CE010E946F1537
:10042000882341F3F8018281882361F0CB35FDE513
:10043000DF0701F158F4C115ECE5DE0791F0CF3D7F
:10044000DC4591F0C8010E947E01D5CFCD358DE508
:10045000D80769F090F0C83ADD45A1F70E94E7019E
:10046000C9CF0E94E201C6CF0E94EC0CF7CF0E94D8
:10047000260CE8CF0E94300CE5CF0E94340CE2CF6E
:100480000E942C170E94800208950E9484020E94FC
:100490003117089508950E944A02089581E0089551
:1004A000CF93C82F0E944E02882371F09C2F909505
:1004B00090FF0CC0459A91FF0BC0419A92FF0AC071
:1004C000449A93FF09C0439ACF9108954598F3CF7A
:1004D0004198F4CF4498F5CF4398F6CF3D9A459A8A
:1004E000399A419A3C9A449A3B9A439A0895CF93F9
:1004F000C82F0E944B028C2F0E945002CF9108956A
:1005000080E00E94770208950E9459160E947702A7
:1005100008950E94591690919801981721F08093A0
:1005200098010E9477020895ABE0B0E0EAE9F2E0BA
:100530000C942A1F4F83588769877A878B876111AC
:100540000E94710B1E821D8285E0FE013796DE013E
:10055000119601900D928A95E1F78C819D81892BEE
:1005600061F449815A816B817C818D819E810E94D9
:100570009A0A2B96E2E00C94461F89819A8189237E
:100580008F3F79F3CE0101960E94BF018111E9CF1F
:10059000F0CFFC01808191810E9460080895CF9383
:1005A000C82F8823C9F08238C9F40E94591681FDEA
:1005B00013C089E30E94290B0E94920B2FEF81EE5A
:1005C00094E0215080409040E1F700C0000089E3B2
:1005D0000E94310B0E94920BCF9108958338A1F4B1
:1005E0000E94591680FDF8CF83E50E94290B0E94D6
:1005F000920B2FEF81EE94E0215080409040E1F784
:1006000000C0000083E5E4CF8438A1F40E945916AD
:1006100082FDE2CF87E40E94290B0E94920B2FEF0C
:1006200081EE94E0215080409040E1F700C000004E
:1006300087E4CECF8CEF8C0F813A90F46C2F8091B1
:100640000601909107010E94BD16882329F08C2F86
:100650000E94310B0E94920B8C2F0E94290BBACF63
:1006600080E28C0F883048F4C77081E001C0880FA9
:10067000CA95EAF70E94540BADCFEBE5EC0FE330DF
:1006800040F4F0E0E55BFE4F808190E00E947F1631
:10069000A3CFE8E5EC0FE73150F4F0E0EE0FFF1FD9
:1006A000E35EFE4F808191810E94951695CFCD3EED
:1006B00008F492CF8C2F0E9425120E94F8128CCF42
:1006C000882309F455C0823879F40E94591681FFB5
:1006D0004FC089E30E94290B0E94920B89E30E947C
:1006E000310B0E94920B0895833859F40E945916D9
:1006F00080FF3EC083E50E94290B0E94920B83E598
:10070000EECF843859F40E94591682FF31C087E435
:100710000E94290B0E94920B87E4E1CF9CEF980F77
:10072000913AE8F290E2980F983050F4877091E097
:1007300001C0990F8A95EAF7892F0E945A0BD1CFF1
:100740009BE5980F933028F490E080E00E947F169C
:10075000089598E5980F973128F490E080E00E9482
:10076000951608958D3E20F00E947F120E94F81287
:1007700008951F93CF93DF93182FEB010E94CF02B0
:10078000209739F4812F0E946003DF91CF911F9150
:1007900008958FE99FE00197F1F700C000002197CD
:1007A000EFCF70E060E0893311F460E570E00E9403
:1007B000B9030895882321F00E94540B0E94920BE4
:1007C0000895882321F00E945A0B0E94920B0895ED
:1007D000B0E0A0E0EEEEF3E00C94231F6C01D62F06
:1007E000C72FFC011281058102950F700E944A0BF0
:1007F000E82E8823B9F0E12E1123A1F08C2F807F01
:10080000803421F080E28D0F8830C8F08091790229
:1008100082FF15C082E00E94F50B0E944A0B91E016
:10082000E82EE926BC2EB2949FE0B922FBE0FB152E
:10083000B8F1EB2DF0E0EF51FF4D0C94111FE12CBE
:10084000F1CF0C2F0F70C07F11F00295007F1123A4
:1008500099F0002359F080E28D0F883010F0D1110B
:1008600007C0802F0E94540B0E94920B8D2F5AC0FC
:10087000802F0E94640BF8CF8D2F0E94600300230D
:1008800079F080E28D0F883010F0D11104C0802FF4
:100890000E945A0B03C0802F0E946A0B0E94920B89
:1008A000EB2DE850FF0B349720F40E9459160E945C
:1008B0007702EE2089F00E94460B80FD0DC0F60104
:1008C00012820E94400B0E940A07C6010E94110674
:1008D0000E94400B0E942C07CDB7DEB7E9E00C94D4
:1008E0003F1F2C2F2F70F22EC07FC03219F0F294D0
:1008F00080EFF822DD2341F0D130E9F1112309F432
:1009000045C00023E9F1B2CF8091790282FD15C084
:10091000112359F0FF2029F08F2D0E94540B0E94C3
:10092000920B80E00E94CF02BBCF80E00E94600368
:10093000FF2009F4B5CF8F2DABCF112381F001112A
:1009400006C00E94740B8F290E94DA03A9CF0130E0
:10095000C1F70E94740B8F290E947B0BA1CF01115C
:1009600006C00E94880B8F2D0E94E10399CF0130B1
:1009700009F496CFF6CF112329F0063008F090CF76
:100980008F2DE2CF053008F08BCFEDCF002359F348
:10099000D93349F43FEF87EE93E0315080409040E7
:1009A000E1F700C000008D2F0E94600379CF8C2FEB
:1009B00086958695837069F0813009F071CF8D2F0F
:1009C0009C2F9370111102C090E080E00E94951658
:1009D00067CF8D2F9C2F9370111102C090E080E0A3
:1009E0000E947F165DCF8D2F112329F00E942512C2
:1009F0000E94F81255CF0E947F12FACF8C2F83707D
:100A000009F041C011114CCF4D2F429546954770CA
:100A1000440F440F0D2F0F7010E030E020E0042E43
:100A200004C0000F111F221F331F0A94D2F760E089
:100A300070E0CB01D4FF0FC06FE070E080E090E089
:100A400004C0660F771F881F991F4A95D2F76095DB
:100A5000709580959095C695C695C370602B712B47
:100A6000822B932BC23049F058F4C13019F00E9408
:100A7000B50616CF0E94A20613CF0E94C80610CF5B
:100A80000E949F060DCF8695112311F08C2F817047
:100A9000882309F405CF4D2F429546954770440FA2
:100AA000440F0D2F0F7010E030E020E0042E04C042
:100AB000000F111F221F331F0A94D2F760E070E06D
:100AC000CB01D4FF0FC06FE070E080E090E004C085
:100AD000660F771F881F991F4A95D2F7609570950A
:100AE00080959095C695C695C370602B712B822B0F
:100AF000932BC23049F058F4C13019F00E94850799
:100B0000CFCE0E947207CCCE0E949807C9CE0E9419
:100B1000E106C6CECF70112329F08C2F0E940A0760
:100B20008D2F12CF8D2F0E94E1038C2F0E942C0756
:100B3000B7CED23F41F160F4D03FB9F0D13F81F060
:100B4000112309F446C0011191CE8C2F8F711FC063
:100B5000D33F01F1D43FA1F78091790282FD24C0F7
:100B60008C2F8F71112311F312C0112341F0053026
:100B700008F096CE8C2F8F710E94500791CE0630D0
:100B800008F08ECEF7CF8C2F8F711111CFCF0E942E
:100B90000A0786CE112329F08C2F8F710E94F4064C
:100BA0007FCE0E94EE067CCE112349F0CF718C2FB0
:100BB0000E940A0763E08C2F0E94D70B71CE81E060
:100BC0000E94F50B023008F46BCE82E00E94F50B18
:100BD00067CE002359F0D93309F0E5CEEFEFF7EEF9
:100BE00023E0E150F0402040E1F7DBCE8C2F8F7105
:100BF0009DCF0F931F93CF93DF93EC016881798191
:100C00008A810E946B088C010E94AB070E949E069D
:100C1000B801CE010E94E803DF91CF911F910F919F
:100C20000895CF93DF93EC018B819C81892B29F070
:100C30008881998189238F3F51F4DF91CF91089565
:100C4000CE010E94F905CE010E94C101F6CFCE016E
:100C50000E94EC018111F4CF0E944A0B882369F3B2
:100C60008A81882351F38091790282FFE6CF82E066
:100C70000E94F50BE2CF90E080E00E947F1690E0AA
:100C800080E00E9495160E94710B0E94920B0E94B8
:100C900014130E94F81208950E94390B0E943B061B
:100CA00008950E94610B0E944C06089592959F70D2
:100CB000963091F058F4925F9F70923058F4803FD4
:100CC00019F030F4883E30F481E008959A5FF4CF53
:100CD000843FD1F380E00895883EB0F3813FD1F79F
:100CE000F3CFFC01808191810E9460080E9456062A
:100CF0000895A5E0B0E0EFE7F6E00C942A1F2596F2
:100D0000E2E00C94461FA6E0B0E0E9E8F6E00C94BF
:100D10002A1F2696E2E00C94461F08950E948D0635
:100D200008950E948E066093E4017093E50180931C
:100D3000E6019093E7010E943B06089508950E9402
:100D4000910608950F931F930091E4011091E5011E
:100D50002091E6013091E701602B712B822B932BC0
:100D60000E9491061F910F9108950F931F93009178
:100D7000E4011091E5012091E6013091E701602343
:100D80007123822393230E9491061F910F9108954E
:100D90000F931F930091E4011091E5012091E6016A
:100DA0003091E70160277127822793270E949106DF
:100DB0001F910F9108950E948D0608950E94DB06F1
:100DC00008950E94DE066093E0017093E101809334
:100DD000E2019093E3010E943B06089560E070E019
:100DE000CB010E94E10608950F931F9341E050E06C
:100DF00060E070E08A019B0104C0000F111F221FF8
:100E0000331F8A95D2F7C901B8010E94E1061F91EC
:100E10000F9108950F931F9341E050E060E070E060
:100E200004C0440F551F661F771F8A95D2F7809123
:100E3000E0019091E101A091E201B091E3018A010A
:100E40009B01082B192B2A2B3B2BC901B8010E94AF
:100E5000E1061F910F9108950F931F9341E050E019
:100E600060E070E004C0440F551F661F771F8A952D
:100E7000D2F7CB01BA01609570958095909500915D
:100E8000E0011091E1012091E2013091E301602342
:100E90007123822393230E94E1061F910F910895ED
:100EA0000F931F9341E050E060E070E004C0440FF6
:100EB000551F661F771F8A95D2F78091E0019091A8
:100EC000E101A091E201B091E3018A019B010827B1
:100ED00019272A273B27C901B8010E94E1061F9163
:100EE0000F9108950F931F930091E0011091E1017C
:100EF0002091E2013091E301602B712B822B932B27
:100F00000E94E1061F910F9108950F931F93009186
:100F1000E0011091E1012091E2013091E3016023B1
:100F20007123822393230E94E1061F910F9108955C
:100F30000F931F930091E0011091E1012091E201D4
:100F40003091E30160277127822793270E94E106F1
:100F50001F910F9108950895262F277091E001C0E9
:100F6000990F2A95EAF723E0769567952A95E1F798
:100F700025E0269FF001279FF00D1124E40FF51FB7
:100F800050E040E0682F70E08191DF0111979B01F4
:100F9000042E02C0369527950A94E2F72170219518
:100FA0002827292328272C934F5F5F4F4530510571
:100FB00059F70895A82FA77023E0969587952A954D
:100FC000E1F725E0289FF001299FF00D1124E60F9D
:100FD000F71F50E040E080E0219130E00A2E02C08F
:100FE000369527950A94E2F721703327042E01C025
:100FF000220F0A94EAF7822B4F5F5F4F453051056D
:1010000059F70895262F9F3070F4873060F4682FC9
:1010100070E087E0989F600D711D11244AE951E04E
:10102000822F0E94AC070895292F9F3068F48730E3
:1010300058F490E06AE971E037E0239F800D911D3C
:1010400011240E94DA07089580E00895B0E0A0E03E
:10105000ECE2F8E00C94231F8C01C090E001D090EA
:10106000E101E090E201F090E3018091E4019091D0
:10107000E501A091E601B091E701C82AD92AEA2A40
:10108000FB2ACFE1D0E0BC2ED701C6010C2E04C054
:10109000B695A795979587950A94D2F780FD09C0D4
:1010A000219788F7B12C8B2DCDB7DEB7E9E00C94F2
:1010B0003F1FB8018C2F0E94B70E019789F3F3CF21
:1010C000CF93DF93EC010E942608BE010E94B70E69
:1010D000DF91CF9108951F93CF93DF93EB01909110
:1010E0009901992339F0CB010E946008DF91CF91DB
:1010F0001F910895882369F0CB010E942608182FBC
:10110000682FCE010E940208BE01812F0E94B70EF7
:10111000EDCFCB010E941408182FF6CF1F93CF9369
:10112000DF93C091E80116E08091E9018C1304C0BF
:10113000DF91CF911F910895D0E01C9FF0011D9F7A
:10114000F00D1124E651FE4F40815181628173817F
:10115000848195810E9483062196C770E5CF4091D6
:101160001A0250911B0260911C0270911D02809125
:101170001E0290911F020E94830608951F93CF9331
:10118000DF9380911F02807F09F049C080911C028B
:10119000882309F444C08091E801C091E90160917D
:1011A0001A0270911B02A0911D02B0911E02D62F4F
:1011B000D72316E0C81799F190E0109711F0DF3FA0
:1011C00019F401968770F6CF189F9001199F300D82
:1011D0001124F901E651FE4F41814713F2CF4081BE
:1011E0004613EFCF42814111ECCF438154814A1B1A
:1011F0005B0B483C510528F780911F028F7080617E
:1012000080931F02F901E151FE4F80818F70806150
:1012100080838AE192E00E9411060E948E08DF918D
:10122000CF911F910895A1E1B0E0E9E1F9E00C94BC
:10123000221F8C0185E0F801DE011D9601900D92C0
:101240008A95E1F7F801E2808AE1C82E82E0D82E83
:1012500060911D0270911E026115710509F44EC165
:1012600090911A0220911B02892F82238F3F09F44B
:1012700045C140815181A380B480F0901C02F501EA
:10128000E61BF70BFF2009F4EAC080911F02382FFC
:10129000307FE83CF10508F0A3C031116DC0FE2C91
:1012A000251316C0941314C0E11012C08F70806112
:1012B00080931F020E94AF08C6010E941106809110
:1012C0001F02F80185838F2D6196EAE00C943E1F82
:1012D000A114B10429F0842F85238F3F09F027C181
:1012E00080E0F82FF170DF2E80FF3CC08091E80194
:1012F0002091E90136E0821315C04D875E878D8508
:101300009E850E946008292F22952F702230F0F0D0
:10131000243018F59F70F1F0F8019581907FD1F499
:10132000D12C1EC090E0389FF001399FF00D1124A0
:10133000E651FE4F6181651306C06081641303C0EE
:101340006281E6120FC001968770D5CF9F7011F0B1
:10135000882331F3805E883018F3C8010E9411069B
:10136000FD2CB1CFEE2009F4AECF80911F02816039
:1013700080931F02F12CA7CF251306C0941304C03D
:10138000F801EE2009F487C0C8010E947106882385
:1013900019F1EE2009F180911F02803270F0209146
:1013A0001A0230911B0238872F831986BB86AA86C2
:1013B0008C87CE0107960E94110686E0F801AAE10B
:1013C000B2E001900D928A95E1F70E94BE080E945A
:1013D000AF08FF24F39477CFC8010E941106F9CF1C
:1013E000311113C07A2DB98AA88A6E2D89890E947D
:1013F00079068AE192E00E94110686E0F6011192D8
:101400008A95E9F70E94AF08B5CF25130FC0941352
:101410000DC0E1100BC0F8018583C8010E941106C0
:1014200086E0F60111928A95E9F74DCFC8010E9436
:101430007106882389F2EE2079F280911F028032B2
:1014400008F4BBCF20911A0230911B023A83298302
:101450001B82BD82AC828E83CE010196ACCFE83C6C
:10146000F10508F03EC0FE2CEE2009F4B5CF25139F
:101470002AC0941328C080911F0280FD1BC0982FA2
:10148000907FC1F0F8018583903F31F0982F907FD5
:10149000905F8F70892B8583C8010E94110686E0BA
:1014A000F801AAE1B2E001900D928A95E1F70E945D
:1014B000AF0809CF86E0F801AAE1B2E001900D92F1
:1014C0008A95E1F700CFC8010E947106811175CF9E
:1014D00080911F02816080931F02C8010E94110643
:1014E000F2CE7A2DB98AA88A6E2D89890E94790652
:1014F00086E0F60111928A95E9F7D9CFEE2009F43A
:101500006BCFC8010E947106F82E882309F464CFBE
:1015100086E0F801AAE1B2E001900D928A95E1F728
:101520008AE192E00E94C9020E94BE08C0CF81E019
:101530008E25D7CEACE0B0E0E0EAFAE00C94291FAB
:101540004F83588769877A878B879C87CE01079658
:101550000E941309882369F08A859B85892B39F0BD
:101560004F815885842F85238F3F09F06BC016E08B
:101570005FC086E0FE013796DE01119601900D9264
:101580008A95E1F78A859B85892B89F388859F81D8
:1015900089238F3F61F32091E90130E0C901019671
:1015A000877099274091E8014817190671F40E9445
:1015B00051061092E9011092E80186E0EAE1F2E0BA
:1015C000DF011D928A95E9F7D2CF96E0929FD00174
:1015D000939FB00D1124A651BE4FFE01319601908C
:1015E0000D929A95E1F78093E9010E948E08BFCF92
:1015F000819FC001112486519E4F0E9413098823A8
:10160000E9F0E091E8011E9FF0011124E651FE4F40
:101610004081518162817381848195810E9483061A
:101620008091E80190E00196877099278093E80106
:101630008091E8019091E9018913DACF2C96E3E0DB
:101640000C94451F69857A858B859C850E9483064D
:101650008ECF682F80910601909107010E94F316AA
:101660000895682F80910601909107010E94F61657
:10167000089580910601909107010E94F91608953E
:1016800080912802859585958595089580912802F9
:101690008770089590912802977081E009F480E0A6
:1016A000089580913302089590913302892B80939D
:1016B00033020895809590913302982390933302DA
:1016C000089510923302089590913202892B8093ED
:1016D00032020895809590913202982390933202BD
:1016E0000895109232020895809129020895089574
:1016F0000E94770B08959091790292FF08C0909113
:101700002902981721F0809329020E94780B0895EE
:1017100080912902882329F01092290280E00E94FA
:10172000780B0895CF93DF93E0910601F0910701C4
:10173000809133028083E0910601F091070180815E
:1017400090913202892B808390912902992381F014
:10175000E0910601F09107018081892B80838091BF
:101760000601909107010E94AB1681110E94880B1F
:10177000C0910601D091070148E050E060E272E0BC
:10178000CE010E949020892B59F088E0FE01A0E252
:10179000B2E001900D928A95E1F7CE010E946616A3
:1017A000DF91CF91089508950E94D30B08959091F1
:1017B000790292FF11C098E0899F90011124622B59
:1017C000609328020E940A078091280285958595DA
:1017D00085950E94D40B08950E940A0708951092DF
:1017E000280280E00E94D40B0895909128028095F1
:1017F000892380932802282F277091F4282F082E00
:10180000000C330B9217130659F09091790292FF56
:1018100007C08595859585950E942C070E94EF0B42
:1018200008959091790292FB222720F9281769F0F8
:1018300080FB92F9909379028091780290917902DD
:101840000E94620C82E00E94F50B0895809179025B
:1018500082FB882780F991E089270E94110C089566
:1018600081E00E94110C089580E00E94110C0895FF
:101870006FEF7FEF90E080E00E94C920089590E034
:1018800080E00E94A52021E0883E9E4F09F020E0E4
:10189000822F089582E090E00E949D20089583E0C9
:1018A00090E00E949D200895CF9384E090E00E94F4
:1018B0009D20C82F82E290E00E949D20982F8C2FBF
:1018C000CF910895CF93C92F682F84E090E00E94B4
:1018D000AB206C2F82E290E00E94AB20CF91089564
:1018E000AB01BC018FE090E00E94BD200895AB01E8
:1018F000BC0183E190E00E94BD20089560E070E0AB
:10190000CB010E94770C089560E070E0CB010E944B
:10191000700C0E947E0C089568EE7EEF90E080E0EF
:101920000E94C92060E082E090E00E94AB2060E06D
:1019300083E090E00E94AB201092E4011092E50158
:101940001092E6011092E70160E084E090E00E94CE
:10195000AB2064E082E290E00E94AB2060E085E092
:1019600090E00E94AB2060E086E090E00E94AB2017
:101970006FEF87E090E00E94AB2040E050E0BA01BA
:1019800088E090E00E94BD2060E08DE090E00E9441
:10199000AB2040E050E0BA0188E190E00E94BD2019
:1019A00060E087E190E00E94AB2040E050E0BA01A7
:1019B0008CE190E00E94BD2070E060E080E290E069
:1019C0000E94C92040E050E0BA0188E190E00E9406
:1019D000BD200E94840C08950E948C0C0895682FED
:1019E0008EE090E00E94AB2008950E94BB176093A8
:1019F0004702709348028093490290934A02609391
:101A000043027093440280934502909346020895E6
:101A1000089508950E94090D089508950E940D0DDE
:101A2000089586E99FE00E944F160E94080D0E94CB
:101A30000A0D089581E008950E941A0D08950895F1
:101A400008950E941F0D0E94200D08950E94B50F59
:101A50000E946E0208950E94A6170E9487100E949D
:101A6000260D0E940E0D0895AAE0B0E0EAE3FDE025
:101A70000C94201F0E949D10982E81110E94F50C3D
:101A800084E3A82E82E0B82E10E000E0802E802FA4
:101A90000E94E20FE82EF501C1905F01C816B1F176
:101AA00080914B0281FD0E94E80FD12CFF24F3941A
:101AB000CE248C2D8F2129F10E941C0D882399F0B2
:101AC000DE828F82EF2081E009F480E088870E9427
:101AD000AF178160782F9A8789874E815F816885EB
:101AE0008A850E949402F801EC5CFD4F8081F82603
:101AF000F08281E0911001C080E02A96ECE00C9425
:101B00003C1FD394FF0CF7E0DF12D3CF0F5F1F4FC2
:101B10000F30110509F0BACF8FEF89838A831B82BA
:101B20000E94AF178160782F9D838C8349815A81F1
:101B30006B818D810E949402DCCF0E94340D0E9443
:101B400036130E9489020895CF93DF930E94BC0E42
:101B5000EC01811521E5920708F042C0811530E5BE
:101B6000930708F09DC0883E910530F5803E9105B1
:101B700008F092C0883A910588F4853A910508F0FA
:101B800084C08130910509F487C0009709F484C0AE
:101B9000049708F081C0D0E0C0E07EC08F3B910583
:101BA000D0F7C85AD0E0CC0FDD1FC25BDE4F0990E2
:101BB000D881C02DD46470C08115904250F4C115F5
:101BC00081E0D80708F068C0CD3ED10520F3D0658C
:101BD00063C0C11590E4D907F0F2DF70D06A5CC031
:101BE000811525E5920700F5811534E5930708F086
:101BF0008BC0811543E5940708F073C0C11582E5D9
:101C0000D80708F469C0CE018370992721E030E03D
:101C100002C0220F331F8A95E2F7C695C69580E26F
:101C2000C89FE001112454C0C11599E5D907A8F453
:101C3000C11528E5D20708F06CC0C11536E5D307F9
:101C400008F0A9CF8C2F0E94530FC82FD0E0DC2FB3
:101C5000CC27CC27DF71D0621FC0C1154AE5D4075D
:101C600008F45CC0CE0190568115904208F093CFE5
:101C70008D2F8F710E94530F90E0982F882788270F
:101C80009F719C012C2BE901E6CFC55AD0E0C458C6
:101C9000DE4FC881D0E0D064CE01DF91CF910895AE
:101CA000E4E096958795EA95E1F783702C2F2695C9
:101CB0002695237040E2249F90011124382B8C2F0D
:101CC0008370C1E0D0E002C0CC0FDD1F8A95E2F73F
:101CD000C22BD32BDC68E0CFDC2FCC27C16FD06ABE
:101CE000DBCF8370992721E030E002C0220F331F41
:101CF0008A95E2F7C695C69590E2C99FE001112446
:101D0000C22BD32BDA68C8CFD82FCC27C46FD06AA8
:101D1000C3CFDC2FCC27C06FD06ABECF8C2F8F7083
:101D20000E94530F34E0D695C7953A95E1F7CF70EE
:101D30009C2FEC01D069B0CF972F7F30A8F467308B
:101D400098F470E027E0929F600D711D1124FB0153
:101D500099E6899FE00DF11D1124EE0FFF1FE85653
:101D6000FF4F85919491089580E090E008950E943E
:101D70009C0E0E94A40D089582389105B1F1B0F433
:101D80008133910509F475C048F48932910509F44D
:101D900069C08A32910509F473C0089585339105AD
:101DA00009F459C08933910501F10895833E9105E5
:101DB000A9F138F4803E9105F9F0823E910549F190
:101DC0000895863E9105A9F1873E9105C9F1843EAB
:101DD000910519F52091790221FF1FC080917802A9
:101DE00084FD14C087EE90E008952091780223705E
:101DF000A1F080EE90E008952091780220FD47C088
:101E00003091790230FF09C024FF44C090E080E0A7
:101E100004C02091780222FDF7CF08952091780226
:101E200022FD3BC03091790230FDE3CF24FFF5CF96
:101E3000EDCF2091780223FFF0CF24FDE7CFD2CF62
:101E40002091780223FD2CC03091790231FFEECF32
:101E500084EE90E008952091780225FFDECF89E29C
:101E600090E008952091780225FFD7CF85E390E098
:101E700008952091780226FFD0CF8AE290E008955D
:101E80002091780226FFC9CF81E390E0089589E38D
:101E900090E0089583EE90E0089582EE90E008953A
:101EA00086EE90E008959091780292FF06C0282F68
:101EB00028712830F9F4877F846093FF06C0282FAB
:101EC00028712831F1F4877E84612091790220FF06
:101ED00006C0382F38713830D9F4877F816021FFF0
:101EE00006C0282F28712831D1F4877E816194FDA6
:101EF000877E0895282F24712430F9F68B7F88601F
:101F0000DCCF282F2471243101F78B7E8861DDCF4F
:101F1000382F3171313019F78E7F8860E0CF282F4C
:101F20002171213121F78E7E8861E1CF80E0089513
:101F30000E94380C08950E949D102FEF83EF91E0CE
:101F4000215080409040E1F700C000000E949D10A9
:101F500080E00E94E20F80FF04C00E94980F0E9460
:101F6000FA1708950E949B0F08950E943F0C81115B
:101F700002C00E94EC0C0E944A0C80934B020E940B
:101F8000540C90937902809378020E94B20F0E94C1
:101F90004F0C682F70E090E080E00E949F066091F7
:101FA000E0017091E1018091E2019091E3010E94D2
:101FB000DE06089508950E94DA0F089508950E949C
:101FC000DE0F0895E82FF0E0E757FD4F8081089578
:101FD000089580EA8A95F1F7089500C008950E9457
:101FE000E90F0895F894E82FE295EF70F0E031A141
:101FF000282F2F7081E090E001C0880F2A95EAF722
:10200000982F9095932391A392A1892B82A37894E2
:1020100008950F931F93CF93DF93C6E8D1E0899182
:102020008F3F11F00E94F20F81E0C539D807B9F750
:10203000CFE7D1E006E811E089918F3F11F00E94CF
:10204000F20F0C171D07C1F7DF91CF911F910F9170
:102050000895B0E0A0E0EFE2F0E10C94241FEC0161
:10206000D62E062F10E0C8018A579E4F7C01FC0136
:1020700080818F3F09F444C0F894E82FE295EF7017
:10208000F0E091A18F7021E030E001C0220F8A952D
:10209000EAF7892F822B81A382A12095282322A3EE
:1020A00078940E94ED0FEFE7F1E031E0C12C21912F
:1020B0002F3F59F1A22FA295AF70B0E090968C916E
:1020C00090E02F7002C0959587952A95E2F780FDE4
:1020D0001CC0832FC82A330F81E0E638F80739F790
:1020E000F70180818F3F11F00E94F20F61E0C11073
:1020F00001C060E08D2D0E94EF0FC00FD11FC8827C
:10210000CDB7DEB7E8E00C94401F80E0E3CF0E943B
:1021100009108FE0E9E8F2E0DF01982F1D929A950F
:10212000E9F7EAE7F2E0DF011D928A95E9F78FE02F
:102130000E94D9100E94CD010895AFE0B0E0E3EA1B
:10214000F0E10C94271F8E010F5F1F4F8FE0F80105
:1021500011928A95E9F7F12C6F2DC8010E94291080
:10216000F394FFE0FF12F8CF4FE050E0B8018AE7A8
:1021700092E00E949020FF24F394009709F4F12C40
:10218000892B41F08FE0F801AAE7B2E001900D92AF
:102190008A95E1F72F2D4FE069E872E08AE792E037
:1021A0000E94F4100E94D0018F2D2F96E5E00C9430
:1021B000431FCF93C82F27E0829FC00111240E94A4
:1021C000651F80935002909351029C0180E08C1314
:1021D00002C0CF910895F90197E011929150E9F76B
:1021E0008F5F295F3F4FF3CFB0E0A0E0EAEFF0E16F
:1021F0000C94231FE82ED92E062FF72E142FC22F52
:10220000D0914D02DD2309F465C00E94AF172091E3
:102210004E0230914F02AC01421B530B9A01909336
:102220004F0280934E024F3F510509F0B8F4452B01
:1022300089F010924D0210924C0280915002409110
:10224000510230E060E090E019130BC060934D0242
:1022500030934C02C1114CC0CD2F3EC02FEF30E067
:10226000E8CFE82FF42FAF01495F5F4F81918823BA
:1022700031F0DF011197281748F01C923D2FE41729
:10228000F507A1F78E2F4F2F9F5FDECF821B8C9318
:102290006D2FF5CF9D9180819827EA0130E020E0F5
:1022A0007601022E02C0EE0CFF1C0A94E2F7B92E52
:1022B000BE2031F0B880B11003C008838E2561E0E4
:1022C00021962F5F3F4F2730310551F7495F5F4F10
:1022D00081931DC0211106C080914C028823F1F02A
:1022E000C11106C00E94AF1790934F0280934E0217
:1022F000409150025091510260914D02702FAE2DCD
:10230000BD2DE02FFF2DCC24C394D12C04E18E2FC2
:10231000871B811708F4BECF60934D02CDB7DEB79F
:10232000E9E00C943F1F0E94CF190E942B0D0E94E0
:10233000DC1908950E94E1190E949D0D0E94FB196D
:1023400008950E9448170E94B5190E94110D0E941D
:1023500093110E949A110E94210DFBCF8091580287
:1023600080FF0DC060910D0170E0660F771F60382F
:10237000710570F56115710569F1862F089581FF6A
:1023800007C060910D0184E0689FB0011124EFCF78
:1023900060910D0182FD0AC0809157028823A9F047
:1023A00020910C0160910D01821710F088E0ECCFB4
:1023B000869FC001112433E0880F991F3A95E1F7F9
:1023C000622F70E00E94FD1ED2CF68E070E0D5CF92
:1023D0008FE7089581E008958091580280FF0CC036
:1023E0006091090170E07595679575956795611520
:1023F000710549F1862F089581FF06C0609109019A
:1024000070E075956795F3CF6091090182FD0BC06F
:10241000909156029923A1F06091080180910901E1
:10242000961738F0682F70E06038710500F38FE779
:102430000895899FC001112470E00E94FD1EF4CF11
:1024400061E070E0D7CF81E008958D3E31F40E94C5
:10245000AE11819580935C0208958E3E19F40E941E
:10246000AE11F8CF8F3E31F40E94AE11819580936A
:102470005B020895803F19F40E94AE11F8CF893FA6
:1024800029F40E94EC1180935D0208958A3F21F4A3
:102490000E94EC118195F7CF8B3F31F40E94EC1133
:1024A000819580935E0208958C3F19F40E94EC118F
:1024B000F8CF9FE0980F983070F4815F990B21E07E
:1024C00030E001C0220F8A95EAF780915A02822BF0
:1024D00080935A0208958D3F31F4809158028160B3
:1024E0008093580208958E3F21F4809158028260B3
:1024F000F7CF8F3FB9F7809158028460F1CF4091B8
:102500005B028D3E59F480915C0287FF0DC01092F2
:102510005C0241110BC01092570208C08E3E81F43C
:1025200080915C0218169CF3442381F080915D0237
:1025300090915E02892B09F05AC0109256020895BC
:102540008F3E49F447FFF0CF10925B0280915C020E
:102550008111ECCFE0CF803F19F41416ACF3E4CF37
:1025600090915D02893F29F41916F4F610925D02EC
:10257000DBCF8A3F19F497FFD7CFF8CF90915E0257
:102580008B3F29F497FFD0CF10925E02CDCF8C3FC6
:1025900019F41916CCF3C8CF9FE0980F983090F437
:1025A000815F990B21E030E0B90102C0660F771F0F
:1025B0008A95E2F7CB01809590915A028923809306
:1025C0005A02B2CF8D3F31F4809158028E7F8093B2
:1025D0005802AACF8E3F21F4809158028D7FF7CF09
:1025E0008F3F09F0A1CF809158028B7FF0CF0895E3
:1025F0000E94AF179C0190915B0280915C02982B26
:1026000021F0309355022093540290915D02809105
:102610005E02982B21F0309353022093520289E5F9
:1026200092E00E947116089586E0E9E5F2E0DF018C
:102630001D928A95E9F71092570210925602109255
:1026400058020895FC01828181110EC0838181119D
:102650000BC08481811108C091E08581811101C086
:1026600090E0892F8170089581E0FCCFA6E0B0E072
:10267000ECE3F3E10C94291F86E0E9E5F2E0DE01EA
:10268000119601900D928A95E1F710925B021092DB
:102690005C0210925D0210925E028B819C81892BFC
:1026A00089F080915402909155020E94C717AC01A5
:1026B000909157029923C9F180910E018417150654
:1026C00008F440C08D819E81892B91F08091520247
:1026D000909153020E94C717AC0190915602992322
:1026E00009F471C080910A018417150608F479C0B5
:1026F000BE016F5F7F4F89E592E00E940017811154
:1027000005C089E592E00E94221381110E94F8120F
:1027100086E0FE013196A9E5B2E001900D928A951E
:10272000E1F72696E3E00C94451F20910F018AE023
:10273000289F900111242417350720F69F5F90935E
:10274000570202C09F3FD1F71B81112359F00E940D
:10275000AE119FEF11160CF491E0899F802D11248A
:1027600080935B021C81112359F00E94AE119FEFF0
:1027700011160CF491E0899F802D112480935C0246
:1027800030915B02332309F49DCF20915C02222318
:1027900009F498CF45EB3403C0011124992359F073
:1027A00090935B0245EB240390011124332339F00D
:1027B00030935C0287CF81E080935B02F3CF81E0AE
:1027C00080935C027FCF20910B018AE0289F9001CB
:1027D00011242417350708F08BCF9F5F9093560282
:1027E00002C09F3FD1F71D81112359F00E94EC11C7
:1027F0009FEF11160CF491E0899F802D1124809396
:102800005D021E81112359F00E94EC119FEF1116F9
:102810000CF491E0899F802D112480935E02309109
:102820005D02332309F464CF20915E02222309F470
:102830005FCF45EB3403C0011124992359F09093E5
:102840005D0245EB240390011124332339F03093CA
:102850005E024ECF81E080935D02F3CF81E08093F2
:102860005E0246CFCF93DF93EC01FB018281882388
:1028700009F433C1C430FDE5DF07C0F5CB3F9CE56B
:10288000D90730F49E0122503C4524313105B0F582
:102890000E94540C9093790280937802C1318CE5A8
:1028A000D80709F4EEC008F069C0C930ECE5DE07CE
:1028B00009F4D5C0C8F5C5308CE5D80709F4C7C000
:1028C00000F5C330ECE5DE0709F4B9C008F0BBC081
:1028D000C230DC4509F4ADC0809178029091790254
:1028E0000E94620C0E94510680E008C0C236EDE5ED
:1028F000DE0771F2C63AFDE5DF0751F2DF91CF91B5
:102900000895809178028062C7309CE5D90709F468
:1029100093C0809178028061C830DC4508F48CC097
:1029200080917802806488C0809178028B7FCD305E
:10293000FCE5DF0709F480C098F4809178028E7F6F
:10294000CB309CE5D90709F477C0809178028C6080
:10295000CC30DC4508F470C0809178028D7F6CC06B
:10296000809178028F7ECF30FCE5DF0709F464C0E8
:1029700008F47BC0809178028F7D5EC0CE3F9CE5DD
:10298000D90709F47AC050F5C531FCE5DF0709F431
:1029900086C098F480917802837FC3319CE5D90783
:1029A00009F44AC008F471C00E945106909178025F
:1029B000892F97FB87F980583FC0CC3FFCE5DF07A4
:1029C00009F449C008F055C0809179028160CB3F7D
:1029D000DC4509F081CF809379027ECFC230EDE5EE
:1029E000DE0709F468C0A8F4C1158DE5D80709F41D
:1029F00052C0809179028360C130DD4560F38091DF
:102A00007902982F909591708E7F892B90FB81F998
:102A1000E2CFC236EDE5DE0709F451C0C63AFDE566
:102A2000DF0709F453C0C330DD4509F055CF80E01E
:102A300043C0809178028160809378024DCF80916D
:102A400078028260F9CF809178028460F5CF80911E
:102A500078028860F1CF809179028260BCCF0E94B9
:102A60005106809178028068E7CF80917802877F55
:102A7000E3CF809179028E7FAECF809179028D7FF6
:102A8000AACF809178028F7BD7CF0E945106809188
:102A900078028F77D1CF809179028C7F9CCF809103
:102AA000780282FB992790F921E0922790FB82F926
:102AB00090FB83F9C1CF81E00E94EF0C0DCF909184
:102AC0007802892F8F7E94FF8061B6CF9091780233
:102AD000892F8E7F90FF8160AFCF81E00FCFCF93A2
:102AE000DF93EB0186319C4511F50E94510B9A81D1
:102AF000992399F08A7A91E009F490E090935F022B
:102B0000811109C089E20E94290B0E94920B80E08A
:102B1000DF91CF91089585E3F6CF80915F02811117
:102B200004C089E20E94310BF0CF85E3FBCF81E046
:102B3000EFCF0F931F93CF93DF93C42FD22FFC01BE
:102B400082818823C9F0409362020E94AF1790935C
:102B500061028093600280E28C0F883040F4C7707D
:102B600081E001C0880FCA95EAF70E94DA03DF917D
:102B7000CF911F910F91089510916202141332C0EA
:102B800080916002909161020E94C717883C910574
:102B900048F5C0E2CD0F1D17B9F080E2810F8830F3
:102BA00040F4177081E001C0880F1A95EAF70E947F
:102BB000E103C83048F481E09D2F977001C0880F71
:102BC0009A95EAF70E94DA03802F0E94D103C83059
:102BD00070F6D77081E001C0880FDA95EAF70E949D
:102BE000E103C5CF80E28C0F883008F6C77081E022
:102BF00001C0880FCA95EAF7F2CF0F939C01CB0171
:102C0000243F4CE5340759F1A8F4293DFCE53F0782
:102C100001F12A3D4CE53407D1F1283D3C4591F4C2
:102C200006E221EE41EE68ED7CE50E94991580E018
:102C30000F910895263FFCE53F07E9F0B0F0273FEC
:102C40003C45F9F0FC018281882339F1109262023F
:102C5000EFCF07E225EE45EE69ED7CE5E6CF06E233
:102C600021EE40EE64EF7CE5E0CF07E225EE44EE96
:102C700065EF7CE5DACF06E221EE42EE66EF7CE519
:102C8000D4CF07E225EE46EE67EF7CE5CECF08E233
:102C900021E045EE6AED7CE5C8CF81E0C9CF909395
:102CA000970180939601089590936802809367023C
:102CB0000895E0916702F0916802309729F0019041
:102CC000F081E02D0995089580E00895E091670274
:102CD000F0916802309721F00280F381E02D099590
:102CE0000895E0916702F0916802309739F022E090
:102CF000DC012C930480F581E02D09950895209145
:102D00006502309166022817390771F090936602C8
:102D100080936502E0916702F0916802309721F09C
:102D20000680F781E02D0995089520916302309186
:102D300064022817390771F090936402809363024C
:102D4000E0916702F0916802309721F00084F185EC
:102D5000E02D099508959C012E5F3F4FAC01485F1F
:102D60005F4F80E02417350709F40895F901919128
:102D70009F019923B9F38F5FF5CF662349F0FC01DA
:102D8000329608962191261729F0E817F907D1F70E
:102D900080E0089581E008959C01FC0132969FEF48
:102DA00080E04191461751F09F3F19F4411101C055
:102DB000982F8F5F8630A9F79F3F09F40895290F58
:102DC000311D97FD3A95F90162830895FC01329611
:102DD00008962191261303C0DF0111971C92E81772
:102DE000F907B9F708950E94CC1608950E94E616D7
:102DF0000895029626E0FC0111922A95E9F70895BC
:102E000046E050E00E94902021E0892B09F420E068
:102E1000822F089508950E940A170895811106C00F
:102E200081E0809369020E940B17089582E0F9CF38
:102E300083E0809369020E940B1708950E940E1789
:102E4000089581E0809369020E940B1708950E9403
:102E500021170895089508950E942B170895089545
:102E600008950E942A170895CF930E942F170E9459
:102E70009D100E943017C0E08C2F0E94E20F81113C
:102E800005C0CF5FCF30C1F7CF91089581E0FCCF6F
:102E900085B7806885BF85B7806885BF08951F9214
:102EA0001FB61F9211248F939F93AF93BF9380916E
:102EB0006A02811113C08091980290919902A091A9
:102EC0009A02B0919B024196A11DB11D8093980278
:102ED00090939902A0939A02B0939B02BF91AF91F5
:102EE0009F918F911F901FBE1F9018958091A002F7
:102EF000843031F10E94400210926A0288E190E031
:102F000020E40FB6F894A895809360000FBE20933C
:102F1000600083B7817F846083BF83B7816083BF94
:102F20007894889583B78E7F83BF0FB6F894A89561
:102F300080916000886180936000109260000FBEF5
:102F400008950E9451060E944502089582E084BDC2
:102F500093E095BD9AEF97BD80936E0008952FB7CB
:102F6000F8948091980290919902A0919A02B09160
:102F70009B022FBF08952FB7F8946091980270912B
:102F8000990280919A0290919B022FBF08959C0113
:102F90004FB7F8948091980290919902A0919A026B
:102FA000B0919B024FBF821B930B089578941F92A0
:102FB0001FB61F9211248F939F93AF93BF9380915D
:102FC000980290919902A0919A02B0919B02019669
:102FD000A11DB11D8093980290939902A0939A022B
:102FE000B0939B02BF91AF919F918F911F901FBE95
:102FF0001F901895F89481E08093E00080E2809320
:10300000D800E9ECF0E010828FE19EE40197F1F73F
:1030100000C000001DBA109268001CBC10BE1FBA90
:1030200010927A0010926E0010926F001092700051
:103030001092710010821092BC0011B814B817B829
:103040001AB81DB810BA12B815B818B81BB81EB8FF
:1030500011BA0C9400FE089588E19AE00FB6F89436
:10306000A895809360000FBE90936000FFCF809181
:103070007602089508959C0182E08093E9009FEF15
:103080008091E800915085FD06C085ED8A95F1F7A5
:1030900000009111F5CF8091E80085FF0CC050E051
:1030A00040E066E070E0C9010E946D1A8091E8007E
:1030B0008E778093E8000895CF93DF93EC0181E051
:1030C0008093E9008FEF9091E800815095FD06C054
:1030D00095ED9A95F1F700008111F5CF8091E80008
:1030E00085FF14C050E040E068E070E0CE010E942F
:1030F0006D1A8091E8008E778093E80088E0FE01E9
:10310000AEE6B2E001900D928A95E1F7DF91CF91A2
:10311000089580936B0270936D0260936C028091AE
:10312000A002843001F582E08093E9008FEF909156
:10313000E800815095FD06C095ED9A95F1F70000E5
:103140008111F5CF8091E80085FF0DC050E040E08F
:1031500063E070E08BE692E00E946D1A8091E800D7
:103160008E778093E8000895BC0184E00E9489185E
:103170000895BC0183E00E948918089580919F0200
:10318000811109C00E94FB1B0E945D1C8091E2001E
:1031900084608093E200089510929F0208950E9437
:1031A0002117089560919C0281E0611101C080E0C7
:1031B0000E94181708959091A00281E0943009F0C0
:1031C00080E060919C020E941E17089542E061EC2D
:1031D00081E00E94771B42E261EC82E00E94771B53
:1031E0009091A00281E0943009F080E060919C020F
:1031F0000E940E1708958091A202833009F461C0E5
:1032000030F48130D1F1823009F49EC008958A30C3
:1032100009F48AC08B3009F46FC0893009F050C0BE
:103220008091A102813209F04BC08091A50290915A
:10323000A602029708F044C08091E800877F80933F
:10324000E8008091E80082FF37C08091F200909101
:10325000F300029731F48091F100813011F0863053
:1032600021F48091F100809376028091E8008B77C1
:103270008093E8000E94AB1B23C08091A102813A99
:10328000F9F48091E800877F8093E8008091A5029F
:103290009091A602892B61F468E08EE692E070E0DE
:1032A0000E94BC1A8091E8008B778093E800089513
:1032B00060E090E080E0F3CF8091A0028111C1CF67
:1032C00008958091A102813AD9F78091A502909149
:1032D000A602892BA9F78091E800877F8093E800F8
:1032E0008091E80080FFFCCF80911C018093F10069
:1032F0008091E8008E77BCCF8091A102813201F7E6
:103300008091A5029091A602892BD1F68091E800C8
:10331000877F8093E8000E94AB1B8091A30280937B
:103320001C010E94510608958091A102813241F64C
:103330008091E800877F8093E8000E94AB1B80911A
:10334000A4028093770208958091A102813A09F046
:10335000B7CF8091E800877F8093E8008091E800F4
:1033600080FFFCCF80917702C1CF84B7877F84BF75
:103370000FB6F894A89580916000886180936000F2
:10338000109260000FBE80E890E00FB6F894809332
:103390006100909361000FBE0E94271708950E945C
:1033A000FB1B0E945D1CE2EEF0E080818460808364
:1033B00078940E94E21E089580E191E00E945416E4
:1033C00008958091A002853031F48091A00285306B
:1033D00019F00E94A11708950E94761780919E020D
:1033E000882399F30E943417882379F30E94571A8F
:1033F0000E945106EACF08950E94FF190895292FCF
:1034000033272330310519F168F42130310509F4EF
:1034100044C02230310509F445C090E080E030E03E
:1034200020E025C02132310549F122323105A9F7CA
:1034300080E490E02AE732E061157105C1F08BE786
:1034400090E02FEF31E06130710589F0E6CF9927E8
:103450008130910581F0009729F00297F1F6EAE6B4
:10346000F1E002C0EEEAF1E0849190E09F01FA0100
:10347000318320830895E4EAF1E0F6CF89E090E01B
:1034800024EC31E06115710591F389E090E02DEDB8
:1034900031E06130710559F3C0CF82E190E02DEE4B
:1034A00031E0E5CF8BE390E022EB31E0E0CF84E147
:1034B00089BD86E189BD09B400FEFDCF8091D800A9
:1034C0008F7D8093D8008091E00082608093E0003F
:1034D0008091E00081FDFCCF0895AF92BF92CF9222
:1034E000DF92FF920F931F93CF93DF936C01EB0159
:1034F0008A010E94CA1BF82E811123C001151105F3
:1035000039F0F80180819181C81BD90BC80ED91EF2
:10351000B12CA12C2097A9F08091E80085FD22C054
:103520008091E8008E778093E80001151105A1F0E5
:10353000F80180819181A80EB91EB182A08285E038
:10354000F82E8F2DDF91CF911F910F91FF90DF907B
:10355000CF90BF90AF9008950E94CA1B8823D1F2EC
:10356000F82EEFCFF60181916F018093F100219742
:10357000FFEFAF1ABF0ACECFFC018091A702909156
:10358000A80286179707A0F06115710529F490919C
:10359000E8009E779093E80090E06115710551F482
:1035A000911108C08091E80082FF33C080E0089547
:1035B000BC01F2CF8091A0028823B9F18530B9F126
:1035C0008091E80083FD2FC08091E80082FDEACF62
:1035D0008091E80080FFE1CF2091F2003091F3006C
:1035E0006115710519F02830310558F091E0283047
:1035F000310509F090E02091E8002E772093E80053
:10360000CCCF81918093F100615071092F5F3F4FC2
:10361000E7CF8091A002882341F0853041F080916E
:10362000E80083FFBFCF81E0089582E0089583E042
:103630000895FC018091A7029091A8028617970730
:10364000A0F06115710529F48091E8008E778093D0
:10365000E80090E06115710551F4911108C0809166
:10366000E80082FF34C080E00895BC01F2CF809171
:10367000A0028823C1F18530C1F18091E80083FD6B
:1036800030C08091E80082FDEACF8091E80080FFA1
:10369000E1CF2091F2003091F3006115710519F02E
:1036A0002830310558F091E02830310509F090E0DC
:1036B0008091E8008E778093E800CCCF849180934E
:1036C000F1003196615071092F5F3F4FE6CF809135
:1036D000A002882341F0853041F08091E80083FF0B
:1036E000BECF81E0089582E0089583E00895982F89
:1036F000973028F08F708093E90081E008959093CF
:10370000E900242F762F50E0981731F07091EC00EB
:103710002091ED005091F00021FD02C09F5FE8CFA5
:103720003091EB003E7F3093EB003091ED003D7F18
:103730003093ED003091EB0031603093EB007093EB
:10374000EC002093ED005093F0002091EE0027FD57
:10375000E5CF80E008958091A10287FF13C080919A
:10376000E80082FF06C08091E8008B778093E80034
:1037700004C08091A0028111F2CF08958091A0022F
:103780008823D9F38091E80080FFF8CF8091E8008A
:103790008E77ECCF2091E4003091E50095E6A90109
:1037A0002091EC00822F817020FF06C08091E800FC
:1037B00080FF06C080E008952091E80022FD1AC035
:1037C0008091A002882389F0853089F08091EB00F8
:1037D00085FD0FC02091E4003091E50042175307AA
:1037E000F9F29150E1F684E0089582E0089583E0D3
:1037F000089581E008950E946D1C0E94751CE0EE02
:10380000F0E0808181608083E8EDF0E080818F7757
:10381000808319BCA7EDB0E08C918E7F8C93808162
:103820008F7E808310929F0208950F931F93CF93F2
:10383000DF930E946D1C0E94751CC8EDD0E088814A
:103840008F77888388818068888388818F7D88834B
:10385000E7EDF0E080818068808319BC1092A002BF
:1038600010929C0210929E0210929D0200EE10E0B7
:10387000F80180818B7F808388818160888342E02A
:1038800060E080E00E94771BE1EEF0E080818E7FB7
:103890008083E2EEF0E080818160808380818860B7
:1038A0008083F80180818E7F808388818061888316
:1038B000DF91CF911F910F910895E8EDF0E08081A5
:1038C0008F7E8083E7EDF0E080818160808381E0FE
:1038D00080939F020E94151C0895E8EDF0E080811E
:1038E0008C7F80831092E20008951092DA0010928B
:1038F000E10008951F920F920FB60F9211240BB69C
:103900000F922F933F934F935F936F937F938F9378
:103910009F93AF93BF93EF93FF938091E10082FF5A
:103920000BC08091E20082FF07C08091E1008B7F95
:103930008093E1000E94E11E8091DA0080FF19C0AF
:103940008091D80080FF15C08091DA008E7F80932F
:10395000DA008091D90080FF98C084E189BD86E1BA
:1039600089BD09B400FEFDCF81E08093A0020E94D2
:10397000BE188091E10080FF19C08091E20080FFB5
:1039800015C08091E2008E7F8093E2008091E2007A
:1039900080618093E2008091D80080628093D8009B
:1039A00019BC85E08093A0020E94D2188091E100AA
:1039B00084FF2BC08091E20084FF27C084E189BD91
:1039C00086E189BD89B5982F917080FFFBCF8091EA
:1039D000D8008F7D8093D8008091E1008F7E809306
:1039E000E1008091E2008F7E8093E2008091E2000E
:1039F00081608093E20080919C02882309F44BC08F
:103A000084E08093A0020E94DB188091E10083FF94
:103A100029C08091E20083FF25C08091E100877F6B
:103A20008093E10082E08093A00210929C0280913A
:103A3000E1008E7F8093E1008091E2008E7F809391
:103A4000E2008091E20080618093E20042E060E069
:103A500080E00E94771B8091F00088608093F000E6
:103A60000E94CF18FF91EF91BF91AF919F918F91DD
:103A70007F916F915F914F913F912F910F900BBE6E
:103A80000F900FBE0F901F90189519BC1092A002B6
:103A90000E94CC186ECF8091E30087FD93E0909355
:103AA000A002B1CF1F920F920FB60F9211240BB646
:103AB0000F922F933F934F935F936F937F938F93C7
:103AC0009F93AF93BF93CF93DF93EF93FF93D091E7
:103AD000E900DF708091EC00C82FC17080FDC0E864
:103AE0001092E9008091F000877F8093F000789435
:103AF0000E949A1D1092E9008091F00088608093E6
:103B0000F000CD2BCF70C093E900FF91EF91DF91D2
:103B1000CF91BF91AF919F918F917F916F915F9165
:103B20004F913F912F910F900BBE0F900FBE0F90B2
:103B30001F901895AAE2B0E0E0EAFDE10C94291F7D
:103B400081EA92E02091F100FC012193CF01F2E0A3
:103B5000893A9F07B9F70E94FB188091E80083FF1C
:103B60001EC18091A1029091A2029A3008F017C163
:103B7000E92FF0E0E351FF4D0C94111F803899F0CC
:103B8000823809F00CC18091A5028F70873008F04F
:103B900006C18093E9008091EB0085FB882780F9BE
:103BA0001092E90006C080919D0290919E029111B1
:103BB00082609091E800977F9093E8008093F100F5
:103BC0001092F1008091E8008E77E5C0882309F417
:103BD000D3C0823009F0E3C08091A3028111D6C026
:103BE0008091A5028F702FEF280F263008F0D7C0E4
:103BF0008093E9002091EB0020FFC8C0933031F49E
:103C00008091EB0080628093EB00C0C09091EB004C
:103C100090619093EB0021E030E001C0220F8A9583
:103C2000EAF72093EA001092EA008091EB008860A6
:103C3000EACF8111B4C01091A3021F778091E300F5
:103C40008078812B8093E3008091E800877F8093C8
:103C5000E8000E94AB1B8091E80080FFFCCF8091C0
:103C6000E30080688093E30082E0111183E0809399
:103C7000A00295C08058823008F091C08091A302C4
:103C80009091A4028C3D23E09207A1F583E08A8302
:103C90008AE289834FB7F894DE01139620E03EE074
:103CA00051E2E32FF0E050935700E49120FF03C06E
:103CB000E295EF703F5FEF708E2F90E0EA30C0F03A
:103CC000C7968D939D932F5F243159F74FBF8091F5
:103CD000E800877F8093E8006AE270E0CE010196F9
:103CE0000E94BC1A8091E8008B778093E80057C04F
:103CF000C096E7CF6091A5027091A602AE014F5F1A
:103D00005F4F0E94FC19BC01892B09F448C09091B7
:103D1000E800977F9093E80089819A810E94191B9F
:103D2000E1CF8038E1F58091E800877F8093E8005B
:103D300080919C028093F10045CF811130C0909119
:103D4000A302923060F58091E800877F8093E800BD
:103D500090939C020E94AB1B80919C02882311F0DF
:103D600084E005C08091E30087FDFACF81E0809375
:103D7000A0020E94E61813C08091A302813079F45A
:103D800081E0933009F080E080939E021092E90078
:103D90008091E800877F8093E8000E94AB1B8091B0
:103DA000E80083FF0AC08091E800877F8093E800E5
:103DB0008091EB0080628093EB00AA96E3E00C9484
:103DC000451F0895CF938091A0028823A1F0C09150
:103DD000E900CF709091EC00892F817090FD80E810
:103DE000C82B1092E9008091E80083FD0E949A1D83
:103DF000CF70C093E900CF91089597FB072E16F47A
:103E0000009407D077FD09D00E94511F07FC05D010
:103E10003EF4909581959F4F0895709561957F4FE1
:103E20000895EE0FFF1F0024001C0BBE0790F691B3
:103E3000E02D09942F923F924F925F926F927F9262
:103E40008F929F92AF92BF92CF92DF92EF92FF92AA
:103E50000F931F93CF93DF93CDB7DEB7CA1BDB0B56
:103E60000FB6F894DEBF0FBECDBF09942A883988FB
:103E700048885F846E847D848C849B84AA84B98402
:103E8000C884DF80EE80FD800C811B81AA81B9810E
:103E9000CE0FD11D0FB6F894DEBF0FBECDBFED0122
:103EA0000895AA1BBB1B51E107C0AA1FBB1FA61781
:103EB000B70710F0A61BB70B881F991F5A95A9F7D3
:103EC00080959095BC01CD0108950F931F93CF93DA
:103ED000DF938230910510F482E090E0E091AB0234
:103EE000F091AC0230E020E0B0E0A0E0309799F42F
:103EF0002115310509F447C0281B390B2430310541
:103F0000C0F58A819B816115710571F1FB01938375
:103F10008283FE0111C040815181028113814817C3
:103F20005907F8F04817590799F4109761F012965D
:103F30000C93129713961C933296CF01DF91CF9179
:103F40001F910F9108950093AB021093AC02F4CF30
:103F50002115310519F04217530718F49A01BD01D4
:103F6000EF01DF01F801C2CF9093AC028093AB0266
:103F7000D0CFFE01E20FF31F8193919322503109BC
:103F800039832883DACF2091A9023091AA02232B0A
:103F900041F420910201309103013093AA02209351
:103FA000A90220910001309101012115310541F450
:103FB0002DB73EB74091040150910501241B350BEC
:103FC0004091A9025091AA024217530708F0B5CFB9
:103FD000241B350B2817390708F4AFCFBC016E5FDF
:103FE0007F4F2617370708F4A8CF640F751F70930B
:103FF000AA026093A902FA01819391939ECFCF9375
:10400000DF930097E9F0FC01329713821282C0918E
:10401000AB02D091AC02DE0130E020E02097A1F4A9
:1040200020813181820F931F2091A9023091AA0231
:104030002817390709F067C0F093AA02E093A90294
:10404000DF91CF910895DA01AE17BF0708F040C0A5
:1040500012964D915C9113979D014115510599F769
:10406000D9011396FC93EE9312974D915D91A40F95
:10407000B51FEA17FB0779F4808191810296840FBE
:10408000951FD90111969C938E93828193811396EB
:104090009C938E931297B0E0A0E08A819B81009759
:1040A000B9F5FE0181919191E80FF91F8091A90264
:1040B0009091AA028E179F0719F6109761F510923A
:1040C000AC021092AB02D093AA02C093A902B8CF5F
:1040D000B383A28340815181840F951FA817B9072C
:1040E00071F44E5F5F4F8D919C911197480F591F4E
:1040F0005183408312968D919C91938382832115E5
:10410000310509F0ADCFF093AC02E093AB0298CF4C
:10411000DE01EC01C2CF13961C921E921297D3CFF0
:10412000FB01DC0104C08D910190801921F4415004
:104130005040C8F7881B990B0895F999FECF92BD9E
:1041400081BDF89A992780B50895A8E1B0E042E0D2
:1041500050E00C94D120262FF999FECF92BD81BD5D
:10416000F89A019700B4021639F01FBA20BD0FB6B5
:10417000F894FA9AF99A0FBE08950396272F0E9491
:10418000AC200E94AB20252F0E94AC20242F0C9441
:10419000AC200196272F0E94AC200C94AB20DC01B0
:1041A000CB01FC01F999FECF06C0F2BDE1BDF89A42
:1041B000319600B40D9241505040B8F70895F894EC
:1041C000FFCF2104210471047104D704F3045004C7
:1041D0005004FE048A0599059905BE1DE61DCF1EF3
:0E41E000E61DCF1E191E3A1ECF1E911E9D1EFB
:1041EE000000AD0220002A02010150010A0414064B
:1041FE0037185C183B18B918B4183A1801E200E9E0
:10420E0000EA00B500B600B700CD008301CC008AED
:10421E000192019401210223022402250226022783
:10422E00022A02B300B4006F007000818283E200A4
:10423E00E900EA00B500B600B700CD008301CC005E
:10424E008A019201940121022302240225022602F0
:10425E0027022A02B300B4006F007000818283C768
:10426E00F0F73133309597C0C16066F69492939013
:06427E003791C634320046
:00000001FF
